:020000040800F2
:10000000D806002061010008A5130008711200083D
:1000100000000000000000000000000000000000E0
:10002000000000000000000000000000A91300080C
:100030000000000000000000A7130008AB13000838
:1000400073010008730100087301000873010008C0
:1000500073010008730100087301000873010008B0
:1000600073010008730100087301000873010008A0
:100070007301000873010008730100087301000890
:1000800073010008730100080000000073010008FC
:100090007301000873010008730100087301000870
:1000A0007301000873010008730100087301000860
:1000B00073010008000000007301000800F002F85E
:1000C00000F03EF80CA030C8083824182D18A246BD
:1000D000671EAB4654465D46AC4201D100F030F895
:1000E0007E460F3E0FCCB6460126334200D0FB1AA7
:1000F000A246AB463343184734170000541700009C
:10010000103A02D378C878C1FAD8520701D330C860
:1001100030C101D504680C60704700000023002442
:1001200000250026103A01D378C1FBD8520700D32E
:1001300030C100D50B6070471FB51FBD10B510BD95
:1001400000F07BF91146FFF7F7FF01F04DFA00F0E0
:1001500093F903B4FFF7F2FF03BC00F099F9000034
:100160000748804707480047FEE7FEE7FEE7FEE74F
:10017000FEE7FEE704480549054A064B70470000C4
:1001800013140008BD000008D8000020D806002085
:10019000D8020020D8020020FEB5054610460C46C5
:1001A000184373D0AE468C460020AD1A01469C41E0
:1001B00067D36646002701243D46B61A9D4102D307
:1001C00013463A462124654676462F04360C3E43B4
:1001D0002D0CB61A9D4104D3150C1B042B4312049D
:1001E0001034654676462F06360A3E432D0AB61A67
:1001F0009D4104D3150E1B022B43120208346546A1
:1002000076462F0736093E432D09B61A9D4104D381
:10021000150F1B012B431201241D65467646AF07BF
:10022000B6083E43AD08B61A9D4104D3950F9B0016
:100230002B439200A41C65467646EF0776083E43A2
:100240006D08B61A9D411AD392185B41641C16E0E2
:100250000018764665464941B71A9D4101910090C4
:1002600009D36046B11A98418E4684460098019998
:100270000025401C6941DD0752082A435B08641EC3
:10028000E6D57246634603B0F0BDFFE700200146A5
:10029000C046C0462A462346F5E701E004C0091FD0
:1002A0000429FBD28B0701D50280801CC90700D02E
:1002B0000270704700290BD0C30702D00270401CA7
:1002C000491E022904D3830702D50280801C891E9F
:1002D000E3E70022EEE70022DFE7002203098B427A
:1002E0002CD3030A8B4211D300239C464EE00346D5
:1002F0000B433CD4002243088B4231D303098B4289
:100300001CD3030A8B4201D394463FE0C3098B42BE
:1003100001D3CB01C01A524183098B4201D38B0117
:10032000C01A524143098B4201D34B01C01A5241BA
:1003300003098B4201D30B01C01A5241C3088B42FF
:1003400001D3CB00C01A524183088B4201D38B00EA
:10035000C01A524143088B4201D34B00C01A52418C
:10036000411A00D201465241104670475DE0CA0F63
:1003700000D04942031000D34042534000229C4623
:1003800003098B422DD3030A8B4212D3FC2289012D
:1003900012BA030A8B420CD3890192118B4208D303
:1003A000890192118B4204D389013AD0921100E065
:1003B0008909C3098B4201D3CB01C01A5241830979
:1003C0008B4201D38B01C01A524143098B4201D3A6
:1003D0004B01C01A524103098B4201D30B01C01AD1
:1003E0005241C3088B4201D3CB00C01A524183084B
:1003F0008B4201D38B00C01A5241D9D243088B42A1
:1004000001D34B00C01A5241411A00D20146634643
:1004100052415B10104601D34042002B00D54942A7
:10042000704763465B1000D3404201B50020C046D0
:10043000C04602BD704770477047754600F024F80B
:10044000AE46050069465346C008C000854618B050
:1004500020B5FFF78FFE60BC00274908B64600268E
:10046000C0C5C0C5C0C5C0C5C0C5C0C5C0C5C0C564
:10047000403D49008D46704710B50446C046C04611
:100480002046FFF766FE10BD004870477800002048
:1004900001491820ABBEFEE726000200704770B588
:1004A000044600688168490720D5816810264907FD
:1004B000002905DA8168890702D4816831438160A7
:1004C00000F080FB05460DE000F07CFB401B02289D
:1004D00008D9A06B3043A063E06B01210843E063BF
:1004E000084670BD206880684007EDD4002070BDCC
:1004F000F8B50446006881688907890F012928D169
:100500000168C90702D1C168090422D581680522A2
:1005100011401025012601290FD1816802221143C3
:10052000816021680320086000F04CFB07460CE066
:1005300000F048FBC01B022807D9A06B2843A0632A
:10054000E06B3043E0630120F8BD20688068C0079D
:10055000EED10020F8BD0000F8B504460020009060
:10056000206881688907890F012905D10168C907B9
:100570002CD1C168090429D48168154A102611407C
:100580000125002915D1816829438160124811494C
:100590000068FFF7A2FE00E0401E00900028FBD19B
:1005A00000F010FB07460CE000F00CFBC01B02281B
:1005B00007D9A06B3043A063E06B2843E0630120C0
:1005C000F8BD20680068C043C007EDD10020F8BD29
:1005D0001700008040420F0014000020F8B50025ED
:1005E000044620340095227D012A3BD00122227549
:1005F00003689E68760776D43F4F4E68BE4254D05B
:100600009E6A0F78BA4016439E620123C26A1B0796
:100610009A421FD0012A1DD0022A1BD0032A19D0CA
:10062000042A17D0052A15D0062A13D0072A11D07C
:1006300002688B6856697607760FB3420AD0536911
:10064000DB08DB005361006842690B7A5B075B0FD4
:100650001A4342610868102806D0112804D01228D5
:1006600002D045E00220F8BD244A9368102809D042
:1006700011280AD00120000603439360086810285F
:1006800006D035E00120C005F6E701208005F3E73C
:100690001C481B490068FFF720FE0A21484300E080
:1006A000401E00900028FBD122E0986A0E78B240EC
:1006B000904398620868102803D0112801D01228AE
:1006C00016D10E498A68102807D0112808D00120B9
:1006D000000682438A600BE005E00120C005F8E7D0
:1006E00001208005F5E7816B2022114381630125FC
:1006F000002020752846F8BD0110000000270140A9
:1007000040420F00140000200068006C7047000099
:10071000F8B500260446002805D0A06B25462035F4
:10072000002802D007E00120F8BD0020E063287512
:10073000204600F0A9F8A06B1022C006002870DB4C
:100740002068816849076CD4A16B13019943022387
:100750001943A16381688907890F012905D10168BF
:10076000C9070FD1C16809040CD4C1681823994383
:10077000A3681943C160206801696368890089081A
:10078000194301612068C1683D4B1940C160207E5A
:10079000617E8003C9030843A17E4B031843A36A0B
:1007A000012B02D001231B0300E000231843E36860
:1007B00018432369022B09D0002318432B79E57EC7
:1007C0005B0018430123012D02D00AE00423F4E763
:1007D000002927D0A16B20252943A163E16B194390
:1007E000E163E1690D46FF3DC23D02D0256A294320
:1007F00008432168CD680543CD600125E16A2D07D6
:10080000A94213D0012911D002290FD003290DD0FC
:1008100004290BD0052909D0062907D0072905D0BE
:1008200010E028E0012109040843DAE721684D6956
:10083000ED08ED004D6121684D69A78D7F077F0FA1
:100840003D434D612168C9680E4D2940814207D161
:100850000020E063A06B80088000401CA06308E0DB
:10086000A06B022188431043A063E06B1843E06350
:1008700001263046F8BDA06B1043A063F8E70000E6
:100880001902FEFFE7FF3F8310B586B0044614212E
:100890006846FFF720FD10492068884219D10F48AB
:1008A000826941150A43826182690A400592426960
:1008B00009020A4342614069084005900120009006
:1008C000032001900020029009206946C00600F034
:1008D000B5F806B010BD0000002401400010024031
:1008E000F8B504464069254620350E4608280BD049
:1008F0002068C068C00709D0A06B20210843A0630E
:10090000002028750120F8BD082700E00C2700F022
:1009100059F9009011E0701C0FD0002E05D000F0A6
:1009200051F90099401AB04207D9A06B042108433D
:10093000A063002028750320F8BD206800683842B5
:10094000E9D0A06B012149020843A0632068C16877
:1009500009058A0F0C21002A1AD1A27E002A17D17C
:100960000268120714D5826853070122002B08DBA6
:1009700043688B434360A06B130298431043A0630A
:1009800006E0A06B20231843A063E06B1043E063F4
:10099000207E002801D1206801600020F8BD000001
:1009A00070B50446216800208968490721D425468E
:1009B0002035297D01291CD001212975617E01295D
:1009C00004D02046FFF7C8FD002811D1A16B0A4AC8
:1009D0001140FF2201321143A1630021E163297517
:1009E00022681C21116021688A6804231A438A60E6
:1009F00070BD022070BD0000FEF1FFFF70B505461E
:100A000004462035287D012807D001262E75204672
:100A1000FFF745FD002802D00CE0022070BD204603
:100A2000FFF766FD002805D1A16BFF22013291433B
:100A30003143A1630021297570BD0000FCB500237E
:100A40000124A1E027462A469F403A4073D04D68D2
:100A5000012D05D0022D03D0112D01D0122D16D15C
:100A600085680326AC465D00AE46AE406546B5439C
:100A7000AC46CE687546AE4065462E4386604668F5
:100A80000D79BE43ED06ED0F9D4035434560C668C8
:100A90005F000325BD40AE46AE4335468E68BE407E
:100AA0002E43C6604E68022E01D0122E14D1DE08ED
:100AB000B60036180196366A5D07B446EE0E0F256D
:100AC000B54000966646AE43B4460D69009EB540FB
:100AD00066462E43019D2E6206687546AE430D792B
:100AE000AD07AD0FBD40354305604D68ED004AD5FB
:100AF000284DAE692643AE61AD699E08ED07ED0F46
:100B00000095254DB6007519AC46AD689E07360FA9
:100B10000F27B740BD430927FF06B84201D1002780
:100B200010E01E4FB84201D101270BE01C4FB84224
:100B300002D1022706E026E01A4FB84201D103276E
:100B400000E00527B7402F436546AF60164E356875
:100B50004F689543FF0300D51543356075684F68AE
:100B60009543BF0300D515437560B5684F6895433D
:100B7000FF0200D51543B560F5684F689543BF0285
:100B800000D51543F5605B1C0A681546DA4000D0B5
:100B900058E7FCBD0010024000000140000400487E
:100BA00000080048000C00480004014000690840AB
:100BB00000D001207047002A01D081617047816216
:100BC000704700000148806870470000080000205E
:100BD0000248816802788918816070470800002007
:100BE00010B506480168102211430160032000F08F
:100BF00007F800F027F8002010BD00000020024098
:100C000070B504460D4D7D202978C000FFF765FBC7
:100C100001460B480068FFF760FB00F011FB00285D
:100C200009D1042C07D200222146401E00F040F8D2
:100C300000206C6070BD012070BD00000800002025
:100C4000140000200EB5002000900190104881692A
:100C5000012211438161816911400291C26901043D
:100C60000A43C261C0690022084002901146012077
:100C700000F01EF8012000F00FF8C0200090054899
:100C80000190684600F018F800F04AF80EBD000028
:100C90000010024002000100002805DBC106C90E59
:100CA00001208840014908607047000000E100E031
:100CB00010B500F0C7FB10BD174A1168E023994337
:100CC00003681943116015494B68012212049343CC
:100CD0004B600B6893430B608B6893438B60CB68CE
:100CE0009343CB604368DB0302D50B6813430B606F
:100CF00043689B0302D54B6813434B600379DB07C2
:100D000002D08B6813438B600079800702D5C868D6
:100D10001043C860704700000070004000040140AC
:100D200002480168102211430160704700700040C2
:100D3000F8B50F46060059D03A4D2868C007C00FD5
:100D4000B84209D228684008400038432860286823
:100D5000C007C00FB84249D13068334C81070CD569
:100D6000400704D560680721090208436060606895
:100D7000F0218843B168084360603078C00726D00E
:100D8000706801280ED0216802280ED0890700293A
:100D90002CDA61688908890001436160FFF712FF5E
:100DA00000900DE021688903F1E78901EFE7FFF783
:100DB00009FF0099411A1D48814201D90320F8BD5D
:100DC00060680C210840716889008842EFD128686A
:100DD000C007C00FB8420BD928684008400038430C
:100DE00028602868C007C00FB84201D00120F8BDB4
:100DF0003078400706D56068072109028843F1680A
:100E00000843606000F018F86168094A0906090F94
:100E1000515CC840074908600320FFF7F1FE00203D
:100E2000F8BD0000002002400010024088130000BE
:100E30001C1800081400002010B514A30FCB88B0B4
:100E40006C460FC415A30FCB0FC4184A51680C2071
:100E50000B4603401648042B16D0082B14D18B02E6
:100E60001B0F6C46E45CD26A04AB1207120F9A5C4B
:100E7000C90305D500231946FFF78EF9214601E085
:100E800020460C4900F0C6FA08B010BD0203040564
:100E9000060708090A0B0C0D0E0F101001020304BF
:100EA00005060708090A0B0C0D0E0F100010024072
:100EB00000127A0000093D00FEB5040070D02078D1
:100EC000DC4DC0074AD068680007800F012807D0B2
:100ED00068680007800F022809D16868C00306D53A
:100EE000286880033AD560680028E7D036E061685A
:100EF000012914D001208004002901D0052914D033
:100F00002A68012109048A432A60296881432960EB
:100F10006068002816D0FFF755FE06460EE02868E8
:100F20000121090408432860F2E729680143296088
:100F3000F5E7FFF747FE801B64286ED8286880031A
:100F4000F7D50BE0FFF73EFE064604E0FFF73AFE5A
:100F5000801B6428F1D828688003F7D42078012604
:100F6000800700283CDA68680007800F07D06868AF
:100F70000007800F022809D16868C00306D42868DA
:100F8000800716D5E06801280AD112E0E068002841
:100F9000286816D030432860FFF714FE074605E0A6
:100FA00043E1FFF70FFEC01B0228C6D82868800760
:100FB000F7D52868F82188432169C90008432860CB
:100FC0000EE0400840002860FFF7FCFD074604E003
:100FD000FFF7F8FDC01B0228AFD828688007F7D4B8
:100FE0002078000722D5E0690028686A0ED03043D7
:100FF0006862FFF7E7FD074604E0FFF7E3FDC01B6B
:1010000002289AD8686A8007F7D50FE040084000A8
:101010006862FFF7D7FD074605E09DE0FFF7D2FDC8
:10102000C01B022889D8686A8007F7D42078042773
:101030004007002860DA00200190E869C00008D469
:10104000E969B8060143E961E969014001200091BD
:10105000019079480168C90511D4016882151143CE
:101060000160FFF7AFFD009005E0FFF7ABFD0099D1
:10107000401A642870D870480068C005F5D5A0688B
:1010800001280AD0002801D0052810D0286A40087D
:1010900040002862286AB84301E0286A3043286289
:1010A000A068002812D0FFF78DFD00900AE0286AA2
:1010B00038432862F1E7FFF785FD0099411A5F4840
:1010C000814249D8286A8007F5D50DE0FFF77AFDFF
:1010D000009006E0FFF776FD0099411A57488142DB
:1010E0003AD8286A8007F5D40198002804D0E96925
:1010F000012000078143E9612078C00635D5606989
:1011000001280CD0401D686B23D038436863686B9E
:10111000400840006863FFF755FD064622E0686B13
:1011200038436863686B30436863FFF74BFD0646DE
:1011300004E0FFF747FD801B02285BD8686B80073F
:10114000F7D5686BF8218843A169C9000843686333
:101150000BE0B8436863F4E74CE0FFF733FD801B16
:10116000022847D8686B8007F7D4206A00285ED031
:1011700069680907890F022942D00126360602282C
:10118000286805D0B0432860FFF71CFD044633E013
:10119000B0432860FFF716FD074604E0FFF712FD95
:1011A000C01B022826D828688001F7D4E86AE16AC3
:1011B000000900010843E862616AA06A084369689F
:1011C0003D22120491430843686028683043286038
:1011D000FFF7F8FC044604E0FFF7F4FC001B0228CC
:1011E00008D828688001F7D521E0FFF7EBFC001B49
:1011F000022801D90320FEBD28688001F5D416E03D
:101200000128F8D06868E96A01221204636A024082
:101210009A420AD10907E26A090F914205D10F21CA
:1012200089040840A16A884201D00120FEBD002047
:10123000FEBD000000100240007000408813000056
:10124000094910B5401E884201D9012010BD074C44
:1012500060610321081F00F0F5F80020A06107205D
:101260002061002010BD0000FFFFFF0000E000E053
:10127000FEE700003EB5002416491748009401948B
:10128000029412C0046004224460C26001218160A3
:10129000047444748474C474FF22C2328461426151
:1012A00002461832147101620838FFF731FA00283B
:1012B00001D072B6FEE701200003019007200290E2
:1012C000009469460448FFF789F9002801D072B6F6
:1012D000FEE73EBD0024014018000020F0B587B0B5
:1012E00014216846FEF7F7FF2B4842690121890562
:1012F0000A43426142690A400592426949110A4320
:10130000426142690A400592426949000A434261CA
:101310004069224E08400590002209113046FFF72F
:101320004AFC7F210022C9003046FFF744FC01211E
:10133000002209033046FFF73EFC09270F21FF0674
:10134000012249023846FFF736FCFF210022013115
:101350003846FFF730FC182000900220002402904D
:10136000019469463846FFF769FB0D480125009056
:1013700002946946019503943046FFF75FFB1F20F6
:101380000002009002946946019503943846FFF7E5
:1013900055FB07B0F0BD00000010024000040048FB
:1013A000F8530000FEE77047704710B5FFF710FCD8
:1013B00010BD30B591B030216846FEF78CFF002497
:1013C00012200F94009001200D940390059010209E
:1013D0000E94049006900520C00402250A900C94F7
:1013E000089509940B946846FFF766FD002801D024
:1013F00072B6FEE707200C900E9401210D950F9414
:101400000CA8FFF795FC002801D072B6FEE711B0DA
:1014100030BD7047F8B5040C8BB2264682B25E43ED
:101420000D0C1046370C58433604801900217941C1
:1014300016466E43370C36048019794126466E43B2
:101440008919F8BD8307FF22DB0E9A408907090E30
:101450009940002808DB830809489B001B1818687E
:1014600090430843186070470007000F083883084E
:1014700004489B001B18D86990430843D861704703
:1014800000E400E000ED00E0F8B50746092008217F
:10149000C006FFF78BFB1D4C002860680AD01C4972
:1014A00000260125884212D3207800280AD001287E
:1014B00017D102E0401C6060F8BD00F075F965705E
:1014C00026700EE0134800F095F9257009E0002819
:1014D00007D01149884204D22078012801D1022086
:1014E0002070666020780028E6D0012807D0022806
:1014F000E2D10648401C00F04FF92570F8BD3A468D
:101500006178044800F0D0F8F8BD00000000002029
:10151000006A180058000020801A0600F3B52C4E0F
:10152000C86981B00D46B0424AD10198FFF738FA38
:101530000021C9430198FFF7D3F90198FFF7E4F8B8
:101540000446A869A04237D0224A0920611EC0067D
:10155000914209D80121002209030746FFF72BFB1E
:101560000122072149020EE01B49FF2261184C327B
:1015700091420AD803210022C9020746FFF71BFB4C
:10158000012203214902384614E01449144A611823
:10159000914208D80721002289020746FFF70BFB7A
:1015A00001225102EFE70F496118DC2904D80F210D
:1015B00000224902FFF7FFFAAC610198FFF71EFA1B
:1015C000E869002802D0401EE861FEBDEE61FEBD64
:1015D00098AB0200AB0B000053F4FFFF07F3FFFFD3
:1015E00029020000DDF0FFFFFFF7FAFAFFF72AFB00
:1015F000FFF7DFFEFFF772FEFFF73CFE0148FFF743
:1016000043FFFBE71800002010B50A7D824225D079
:10161000134C087501280CD0022814D003281DD1C2
:1016200079210122C9002046FFF7C5FA00223021A6
:1016300011E0FF21012281312046FFF7BCFA002290
:101640004F21C90007E06D210122C9002046FFF7A4
:10165000B2FA002290212046FFF7ADFA10BD00003B
:101660000004004870B50446C0680125AD030C4E67
:10167000002804D1012229463046FFF79CFAE06891
:101680000849401CE060884208D1002229463046C3
:10169000FFF791FA00206060A060E06070BD00007C
:1016A00000040048C802080070B50D460446014613
:1016B0001046FFF733FF21462846FFF7A5FF092014
:1016C0001021C006FFF772FA0028206808D0002811
:1016D0000ED00D4988420BD26068002802D007E086
:1016E000401C0EE00120A0602146284600F00EF8C4
:1016F0006068012802D12046FFF7B4FFA0680028E7
:1017000000D1206070BD0000CC550100F8B5012665
:10171000002537030C46012807D002281AD00328D9
:1017200017D12069002824D028E02069002804D19E
:10173000012239461448FFF73EFA20691349401C3C
:10174000206113E0002239460F48FFF734FA256183
:1017500060C4F8BD2069002804D1012239460A4836
:10176000FFF729FA20690A49401C20618842E9D024
:10177000F8BD012239460448FFF71DFA20690549E2
:10178000401C2061F2E7000000040048C802080085
:10179000F8590D0028B112000178032902D0491C24
:1017A000017070470121FBE710B5114C01210022A7
:1017B00009032046FFF7FFF9012100228903204693
:1017C000FFF7F9F97F210022C9002046FFF7F3F95E
:1017D0000924FF21E406002201312046FFF7EBF93E
:1017E0000F21012249022046FFF7E5F910BD000054
:1017F0000004004810B50021016041608160C160B3
:101800000161017581610449C16101220920110250
:10181000C006FFF7D0F910BD98AB02000000000031
:101820000000000001020304060708094C18000824
:1018300000000020180000000001000864180008E3
:1018400018000020C00600001C0100080001000074
:101850000000000001000000040000000000000083
:0418600000127A00F8
:04000005080000BD32
:00000001FF
