:020000040800F2
:10000000F006002061010008D513000895120008D1
:1000100000000000000000000000000000000000E0
:10002000000000000000000000000000E1130008D4
:100030000000000000000000DF130008E3130008C8
:1000400073010008D713000873010008730100084A
:1000500073010008730100087301000873010008B0
:1000600073010008730100087301000873010008A0
:100070007301000873010008730100087301000890
:1000800073010008730100080000000073010008FC
:100090007301000873010008730100087301000870
:1000A0007301000873010008730100087301000860
:1000B00073010008000000007301000800F002F85E
:1000C00000F03EF80CA030C8083824182D18A246BD
:1000D000671EAB4654465D46AC4201D100F030F895
:1000E0007E460F3E0FCCB6460126334200D0FB1AA7
:1000F000A246AB46334318479C1B0000BC1B0000C4
:10010000103A02D378C878C1FAD8520701D330C860
:1001100030C101D504680C60704700000023002442
:1001200000250026103A01D378C1FBD8520700D32E
:1001300030C100D50B6070471FB51FBD10B510BD95
:1001400000F07BF91146FFF7F7FF01F0B1FA00F07C
:1001500093F903B4FFF7F2FF03BC00F099F9000034
:100160000748804707480047FEE7FEE7FEE7FEE74F
:10017000FEE7FEE704480549054A064B70470000C4
:100180004B140008BD000008F0000020F00600201D
:10019000F0020020F0020020FEB5054610460C4695
:1001A000184373D0AE468C460020AD1A01469C41E0
:1001B00067D36646002701243D46B61A9D4102D307
:1001C00013463A462124654676462F04360C3E43B4
:1001D0002D0CB61A9D4104D3150C1B042B4312049D
:1001E0001034654676462F06360A3E432D0AB61A67
:1001F0009D4104D3150E1B022B43120208346546A1
:1002000076462F0736093E432D09B61A9D4104D381
:10021000150F1B012B431201241D65467646AF07BF
:10022000B6083E43AD08B61A9D4104D3950F9B0016
:100230002B439200A41C65467646EF0776083E43A2
:100240006D08B61A9D411AD392185B41641C16E0E2
:100250000018764665464941B71A9D4101910090C4
:1002600009D36046B11A98418E4684460098019998
:100270000025401C6941DD0752082A435B08641EC3
:10028000E6D57246634603B0F0BDFFE700200146A5
:10029000C046C0462A462346F5E701E004C0091FD0
:1002A0000429FBD28B0701D50280801CC90700D02E
:1002B0000270704700290BD0C30702D00270401CA7
:1002C000491E022904D3830702D50280801C891E9F
:1002D000E3E70022EEE70022DFE7002203098B427A
:1002E0002CD3030A8B4211D300239C464EE00346D5
:1002F0000B433CD4002243088B4231D303098B4289
:100300001CD3030A8B4201D394463FE0C3098B42BE
:1003100001D3CB01C01A524183098B4201D38B0117
:10032000C01A524143098B4201D34B01C01A5241BA
:1003300003098B4201D30B01C01A5241C3088B42FF
:1003400001D3CB00C01A524183088B4201D38B00EA
:10035000C01A524143088B4201D34B00C01A52418C
:10036000411A00D201465241104670475DE0CA0F63
:1003700000D04942031000D34042534000229C4623
:1003800003098B422DD3030A8B4212D3FC2289012D
:1003900012BA030A8B420CD3890192118B4208D303
:1003A000890192118B4204D389013AD0921100E065
:1003B0008909C3098B4201D3CB01C01A5241830979
:1003C0008B4201D38B01C01A524143098B4201D3A6
:1003D0004B01C01A524103098B4201D30B01C01AD1
:1003E0005241C3088B4201D3CB00C01A524183084B
:1003F0008B4201D38B00C01A5241D9D243088B42A1
:1004000001D34B00C01A5241411A00D20146634643
:1004100052415B10104601D34042002B00D54942A7
:10042000704763465B1000D3404201B50020C046D0
:10043000C04602BD704770477047754600F024F80B
:10044000AE46050069465346C008C000854618B050
:1004500020B5FFF78FFE60BC00274908B64600268E
:10046000C0C5C0C5C0C5C0C5C0C5C0C5C0C5C0C564
:10047000403D49008D46704710B50446C046C04611
:100480002046FFF766FE10BD004870478C00002034
:1004900001491820ABBEFEE726000200704770B588
:1004A000044600688168490720D5816810264907FD
:1004B000002905DA8168890702D4816831438160A7
:1004C00000F080FB05460DE000F07CFB401B02289D
:1004D00008D9A06B3043A063E06B01210843E063BF
:1004E000084670BD206880684007EDD4002070BDCC
:1004F000F8B50446006881688907890F012928D169
:100500000168C90702D1C168090422D581680522A2
:1005100011401025012601290FD1816802221143C3
:10052000816021680320086000F04CFB07460CE066
:1005300000F048FBC01B022807D9A06B2843A0632A
:10054000E06B3043E0630120F8BD20688068C0079D
:10055000EED10020F8BD0000F8B504460020009060
:10056000206881688907890F012905D10168C907B9
:100570002CD1C168090429D48168154A102611407C
:100580000125002915D1816829438160124811494C
:100590000068FFF7A2FE00E0401E00900028FBD19B
:1005A00000F010FB07460CE000F00CFBC01B02281B
:1005B00007D9A06B3043A063E06B2843E0630120C0
:1005C000F8BD20680068C043C007EDD10020F8BD29
:1005D0001700008040420F0014000020F8B50025ED
:1005E000044620340095227D012A3BD00122227549
:1005F00003689E68760776D43F4F4E68BE4254D05B
:100600009E6A0F78BA4016439E620123C26A1B0796
:100610009A421FD0012A1DD0022A1BD0032A19D0CA
:10062000042A17D0052A15D0062A13D0072A11D07C
:1006300002688B6856697607760FB3420AD0536911
:10064000DB08DB005361006842690B7A5B075B0FD4
:100650001A4342610868102806D0112804D01228D5
:1006600002D045E00220F8BD244A9368102809D042
:1006700011280AD00120000603439360086810285F
:1006800006D035E00120C005F6E701208005F3E73C
:100690001C481B490068FFF720FE0A21484300E080
:1006A000401E00900028FBD122E0986A0E78B240EC
:1006B000904398620868102803D0112801D01228AE
:1006C00016D10E498A68102807D0112808D00120B9
:1006D000000682438A600BE005E00120C005F8E7D0
:1006E00001208005F5E7816B2022114381630125FC
:1006F000002020752846F8BD0110000000270140A9
:1007000040420F00140000200068006C7047000099
:10071000F8B500260446002805D0A06B25462035F4
:10072000002802D007E00120F8BD0020E063287512
:10073000204600F0A9F8A06B1022C006002870DB4C
:100740002068816849076CD4A16B13019943022387
:100750001943A16381688907890F012905D10168BF
:10076000C9070FD1C16809040CD4C1681823994383
:10077000A3681943C160206801696368890089081A
:10078000194301612068C1683D4B1940C160207E5A
:10079000617E8003C9030843A17E4B031843A36A0B
:1007A000012B02D001231B0300E000231843E36860
:1007B00018432369022B09D0002318432B79E57EC7
:1007C0005B0018430123012D02D00AE00423F4E763
:1007D000002927D0A16B20252943A163E16B194390
:1007E000E163E1690D46FF3DC23D02D0256A294320
:1007F00008432168CD680543CD600125E16A2D07D6
:10080000A94213D0012911D002290FD003290DD0FC
:1008100004290BD0052909D0062907D0072905D0BE
:1008200010E028E0012109040843DAE721684D6956
:10083000ED08ED004D6121684D69A78D7F077F0FA1
:100840003D434D612168C9680E4D2940814207D161
:100850000020E063A06B80088000401CA06308E0DB
:10086000A06B022188431043A063E06B1843E06350
:1008700001263046F8BDA06B1043A063F8E70000E6
:100880001902FEFFE7FF3F8310B586B0044614212E
:100890006846FFF720FD10492068884219D10F48AB
:1008A000826941150A43826182690A400592426960
:1008B00009020A4342614069084005900120009006
:1008C000032001900020029009206946C00600F034
:1008D000B5F806B010BD0000002401400010024031
:1008E000F8B504464069254620350E4608280BD049
:1008F0002068C068C00709D0A06B20210843A0630E
:10090000002028750120F8BD082700E00C2700F022
:1009100059F9009011E0701C0FD0002E05D000F0A6
:1009200051F90099401AB04207D9A06B042108433D
:10093000A063002028750320F8BD206800683842B5
:10094000E9D0A06B012149020843A0632068C16877
:1009500009058A0F0C21002A1AD1A27E002A17D17C
:100960000268120714D5826853070122002B08DBA6
:1009700043688B434360A06B130298431043A0630A
:1009800006E0A06B20231843A063E06B1043E063F4
:10099000207E002801D1206801600020F8BD000001
:1009A00070B50446216800208968490721D425468E
:1009B0002035297D01291CD001212975617E01295D
:1009C00004D02046FFF7C8FD002811D1A16B0A4AC8
:1009D0001140FF2201321143A1630021E163297517
:1009E00022681C21116021688A6804231A438A60E6
:1009F00070BD022070BD0000FEF1FFFF70B505461E
:100A000004462035287D012807D001262E75204672
:100A1000FFF745FD002802D00CE0022070BD204603
:100A2000FFF766FD002805D1A16BFF22013291433B
:100A30003143A1630021297570BD0000FCB500237E
:100A40000124A1E027462A469F403A4073D04D68D2
:100A5000012D05D0022D03D0112D01D0122D16D15C
:100A600085680326AC465D00AE46AE406546B5439C
:100A7000AC46CE687546AE4065462E4386604668F5
:100A80000D79BE43ED06ED0F9D4035434560C668C8
:100A90005F000325BD40AE46AE4335468E68BE407E
:100AA0002E43C6604E68022E01D0122E14D1DE08ED
:100AB000B60036180196366A5D07B446EE0E0F256D
:100AC000B54000966646AE43B4460D69009EB540FB
:100AD00066462E43019D2E6206687546AE430D792B
:100AE000AD07AD0FBD40354305604D68ED004AD5FB
:100AF000284DAE692643AE61AD699E08ED07ED0F46
:100B00000095254DB6007519AC46AD689E07360FA9
:100B10000F27B740BD430927FF06B84201D1002780
:100B200010E01E4FB84201D101270BE01C4FB84224
:100B300002D1022706E026E01A4FB84201D103276E
:100B400000E00527B7402F436546AF60164E356875
:100B50004F689543FF0300D51543356075684F68AE
:100B60009543BF0300D515437560B5684F6895433D
:100B7000FF0200D51543B560F5684F689543BF0285
:100B800000D51543F5605B1C0A681546DA4000D0B5
:100B900058E7FCBD0010024000000140000400487E
:100BA00000080048000C00480004014000690840AB
:100BB00000D001207047002A01D081617047816216
:100BC000704700000148806870470000080000205E
:100BD0000248816802788918816070470800002007
:100BE00010B506480168102211430160032000F08F
:100BF00007F800F027F8002010BD00000020024098
:100C000070B504460D4D7D202978C000FFF765FBC7
:100C100001460B480068FFF760FB00F023FB00284B
:100C200009D1042C07D200222146401E00F040F8D2
:100C300000206C6070BD012070BD00000800002025
:100C4000140000200EB5002000900190104881692A
:100C5000012211438161816911400291C26901043D
:100C60000A43C261C0690022084002901146012077
:100C700000F01EF8012000F00FF8602000900548F9
:100C80000190684600F018F800F04AF80EBD000028
:100C90000010024002000100002805DBC106C90E59
:100CA00001208840014908607047000000E100E031
:100CB00010B500F0F1FB10BD174A1168E02399430D
:100CC00003681943116015494B68012212049343CC
:100CD0004B600B6893430B608B6893438B60CB68CE
:100CE0009343CB604368DB0302D50B6813430B606F
:100CF00043689B0302D54B6813434B600379DB07C2
:100D000002D08B6813438B600079800702D5C868D6
:100D10001043C860704700000070004000040140AC
:100D200002480168102211430160704700700040C2
:100D300010B500F02FFD10BD10B5054C6069C00363
:100D400004D5FFF7F5FF01200004606110BD00002D
:100D500000040140F8B50F46060059D03A4D286806
:100D6000C007C00FB84209D2286840084000384385
:100D700028602868C007C00FB84249D13068334C9A
:100D800081070CD5400704D5606807210902084394
:100D900060606068F0218843B16808436060307823
:100DA000C00726D0706801280ED0216802280ED016
:100DB000890700292CDA616889088900014361608C
:100DC000FFF700FF00900DE021688903F1E789013A
:100DD000EFE7FFF7F7FE0099411A1D48814201D95C
:100DE0000320F8BD60680C210840716889008842C2
:100DF000EFD12868C007C00FB8420BD92868400857
:100E00004000384328602868C007C00FB84201D0AE
:100E10000120F8BD3078400706D560680721090237
:100E20008843F1680843606000F018F86168094A77
:100E30000906090F515CC840074908600320FFF705
:100E4000DFFE0020F8BD000000200240001002403C
:100E500088130000841C00081400002010B514A39F
:100E60000FCB88B06C460FC415A30FCB0FC4184A24
:100E700051680C200B4603401648042B16D0082B53
:100E800014D18B021B0F6C46E45CD26A04AB1207D0
:100E9000120F9A5CC90305D500231946FFF77CF9A8
:100EA000214601E020460C4900F0D0FA08B010BD00
:100EB00002030405060708090A0B0C0D0E0F10109B
:100EC0000102030405060708090A0B0C0D0E0F109A
:100ED0000010024000127A0000093D00FEB5040037
:100EE00070D02078DC4DC0074AD068680007800FBA
:100EF000012807D068680007800F022809D16868B8
:100F0000C00306D5286880033AD560680028E7D07A
:100F100036E06168012914D001208004002901D045
:100F2000052914D02A68012109048A432A60296806
:100F3000814329606068002816D0FFF743FE06460B
:100F40000EE028680121090408432860F2E72968B7
:100F500001432960F5E7FFF735FE801B64286ED852
:100F600028688003F7D50BE0FFF72CFE064604E067
:100F7000FFF728FE801B6428F1D828688003F7D487
:100F800020780126800700283CDA68680007800F77
:100F900007D068680007800F022809D16868C0037D
:100FA00006D42868800716D5E06801280AD112E027
:100FB000E0680028286816D030432860FFF702FE5A
:100FC000074605E043E1FFF7FDFDC01B0228C6D838
:100FD00028688007F7D52868F82188432169C90067
:100FE000084328600EE0400840002860FFF7EAFD53
:100FF000074604E0FFF7E6FDC01B0228AFD82868CB
:101000008007F7D42078000722D5E0690028686AB5
:101010000ED030436862FFF7D5FD074604E0FFF7C6
:10102000D1FDC01B02289AD8686A8007F7D50FE067
:10103000400840006862FFF7C5FD074605E09DE0F7
:10104000FFF7C0FDC01B022889D8686A8007F7D463
:10105000207804274007002860DA00200190E86922
:10106000C00008D4E969B8060143E961E9690140B3
:1010700001200091019079480168C90511D40168E7
:10108000821511430160FFF79DFD009005E0FFF719
:1010900099FD0099401A642870D870480068C0050E
:1010A000F5D5A06801280AD0002801D0052810D065
:1010B000286A400840002862286AB84301E0286A8C
:1010C00030432862A068002812D0FFF77BFD009013
:1010D0000AE0286A38432862F1E7FFF773FD0099B8
:1010E000411A5F48814249D8286A8007F5D50DE04A
:1010F000FFF768FD009006E0FFF764FD0099411AD4
:10110000574881423AD8286A8007F5D401980028C8
:1011100004D0E969012000078143E9612078C00615
:1011200035D5606901280CD0401D686B23D0384349
:101130006863686B400840006863FFF743FD06463C
:1011400022E0686B38436863686B30436863FFF77D
:1011500039FD064604E0FFF735FD801B02285BD809
:10116000686B8007F7D5686BF8218843A169C900CF
:10117000084368630BE0B8436863F4E74CE0FFF7AB
:1011800021FD801B022847D8686B8007F7D4206AAE
:1011900000285ED069680907890F022942D001261C
:1011A00036060228286805D0B0432860FFF70AFDFC
:1011B000044633E0B0432860FFF704FD074604E02F
:1011C000FFF700FDC01B022826D828688001F7D44D
:1011D000E86AE16A000900010843E862616AA06AFE
:1011E000084369683D2212049143084368602868F7
:1011F00030432860FFF7E6FC044604E0FFF7E2FC1A
:10120000001B022808D828688001F7D521E0FFF7E5
:10121000D9FC001B022801D90320FEBD28688001EB
:10122000F5D416E00128F8D06868E96A01221204B2
:10123000636A02409A420AD10907E26A090F9142A1
:1012400005D10F2189040840A16A884201D00120FC
:10125000FEBD0020FEBD00000010024000700040F6
:1012600088130000094910B5401E884201D90120A9
:1012700010BD074C60610321081F00F00DF900202C
:10128000A06107202061002010BD0000FFFFFF00CB
:1012900000E000E0FEE700003EB5002416491748D4
:1012A00000940194029412C0046004224460C2605D
:1012B00001218160047444748474C474FF22C232B6
:1012C0008461426102461832147101620838FFF7E6
:1012D0001FFA002801D072B6FEE70120000301903A
:1012E00007200290009469460448FFF777F9002828
:1012F00001D072B6FEE73EBD002401401800002078
:10130000F0B587B014216846FEF7E5FF2E48426924
:10131000012189050A43426142690A4005924269F6
:1013200049110A43426142690A40059242694900F3
:101330000A4342614069254E084005900022091188
:101340003046FFF738FC7F210022C9003046FFF706
:1013500032FC0121002209033046FFF72CFC012159
:10136000002249033046FFF726FC09270F21FF061C
:10137000012249023846FFF71EFCFF2100220131FD
:101380003846FFF718FC1820009002200024029035
:10139000019469463846FFF751FB0D48012500903E
:1013A00002946946019503943046FFF747FB1F20DE
:1013B0000002009002946946019503943846FFF7B5
:1013C0003DFB07B0F0BD00000010024000040048E3
:1013D000F8730000FEE710B5FFF7AEFC10BD7047D4
:1013E000704710B5FFF7F4FB10BD30B591B0302158
:1013F0006846FEF770FF002412200F940090012031
:101400000D940390059010200E94049006900520F2
:10141000C00402250A900C94089509940B94684620
:10142000FFF75CFD002801D072B6FEE707200C90A4
:101430000E9401210D950F940CA8FFF78BFC00284A
:1014400001D072B6FEE711B030BD7047F8B5040C9C
:101450008BB2264682B25E430D0C1046370C5843C1
:10146000360480190021794116466E43370C360444
:101470008019794126466E438919F8BD30B4744607
:10148000641E2578641CAB4200D21D46635D5B0080
:10149000E31830BC184700008307FF22DB0E9A4098
:1014A0008907090E9940002808DB830809489B003A
:1014B0001B18186890430843186070470007000F16
:1014C0000838830804489B001B18D86990430843D8
:1014D000D861704700E400E000ED00E0F8B5074691
:1014E00009200821C006FFF761FB1F4C0028606837
:1014F0000AD01E4900260125884212D320780028F0
:101500000AD0012817D102E0401C6060F8BD00F04D
:101510007DFB657026700EE0154800F09DFB257080
:1015200009E0002807D01349884204D22078012816
:1015300001D102202070666020780028E6D00128C2
:1015400008D00228E2D108480949401C00F03AFBC3
:101550002570F8BD3A466178054800F077F90449EE
:10156000384600F009F8F8BD00000020006A1800B5
:1015700058000020801A0600F3B5086B0026454F7E
:1015800081B00C46002803D0E06A002812D017E092
:10159000A06A002804D1012251033F48FFF70BFB4A
:1015A000A06A3E49401CA062884210D30120A66276
:1015B00020630CE00121002249033748FFF7FBFAC2
:1015C000E06A401CE062B84201D3E6622663606ACA
:1015D000B84257D10198FFF7E3F90021C9430198B8
:1015E000FFF77EF90198FFF78FF8216A0546A942B7
:1015F00044D02B4829180920C006612908D80121A8
:1016000000220903FFF7D7FA0122072149021FE050
:101610002349FF2262396918E73291420AD803212F
:1016200009200022C902C006FFF7C5FA01220321E2
:1016300049020DE01B491C4A691891420ED8072146
:10164000092000228902C006FFF7B5FA01225102E3
:101650000920C006FFF7AFFA26630FE013496918A7
:101660005E290BD80F2100224902FFF7A4FA0220BD
:101670000103206300220848FFF79DFA25620198C4
:10168000FFF7BCF9606A002802D0401E6062FEBD10
:101690006762FEBD98AB02000004004830570500A9
:1016A000F4F4FFFFABF2FFFF4B0200005FF0FFFF1F
:1016B000FFF796FAFFF799FEFFF722FEFFF7ECFD22
:1016C0000148FFF70BFFFBE71800002010B50246AA
:1016D000087F90421FD00A772D481300FFF7CEFEF7
:1016E0000A1B06101C252F39424B4F1BFF210122DC
:1016F00081310446FFF75FFA00224F21C90007E05D
:101700006D210122C9000446FFF755FA00229021FD
:101710002046FFF750FA10BD79210122C900044686
:10172000FFF749FA00223021F2E7FF210122993127
:101730000446FFF740FA002213214901E8E75B2144
:101740000122C9000446FFF736FA0022FF212131A9
:10175000DEE70122F8210446FFF72DFA00220321DB
:101760000902D5E73921012209010446FFF723FACE
:1017700000226821CCE701227F21C900C9E773213B
:101780000122C9000446FFF716FA00226021BFE7D4
:101790000004004810B51949002048600870012273
:1017A0004A701749184C086048608860C860086132
:1017B0000877086213484862012100228903204605
:1017C000FFF7F9F97F210022C9002046FFF7F3F95E
:1017D0000121002209032046FFF7EDF909240F211A
:1017E000E406012249022046FFF7E5F9FF21002225
:1017F00001312046FFF7DFF910BD00000000002096
:101800005800002098AB02000004004870B5044660
:10181000C0680125AD030B4E002804D101222946E2
:101820003046FFF7C8F9E0680749401CE06088428D
:1018300007D1002229463046FFF7BDF9002060603D
:10184000E06070BD00040048C802080070B50D4695
:10185000044601462846FFF739FF09201021C0063B
:10186000FFF7A4F90028206808D000280BD01349FE
:10187000884208D26068002802D004E0401C1AE0C8
:10188000A068002803D0A068012803D009E0012047
:10189000A06002E06068002803D12146284600F0DD
:1018A0000FF86068012805D1A068002802D1204601
:1018B000FFF7ACFF0020206070BD0000CC55010098
:1018C000F8B5BD4F0C4600257E100300FFF7D6FD8E
:1018D0000A1D061E2C3B7DA8D8FBF91D2069002897
:1018E00004D101221103B548FFF765F92069401CB6
:1018F0002061B04209D3012100220903AF48FFF75C
:101900005AF925610120A5606060F8BD20690028B2
:1019100004D101221103A948FFF74DF92069401CA9
:101920002061B842E7D2F8BD2069002804D1012225
:101930001103A248FFF73FF92069A149401C20612B
:101940008842D8D2F8BD2069002804D101221103B1
:101950009A48FFF730F9A06900287DD00128FCD013
:101960002069B04201D2401C2061B0421BD36069A3
:10197000002812D017E0B04208D36069002805D1D2
:101980000121002209038D48FFF715F92069B042B3
:1019900074D26069B04272D2F8BD012100220903FD
:1019A0008648FFF708F92069B04204D36069B04265
:1019B00001D2401C60616069B042EDD32561A56031
:1019C000A561012065616060F8BD2069002804D12F
:1019D000012211037948FFF7EEF8794E2069B042F1
:1019E00001D2401C2061B0420BD36069002808D1AD
:1019F000A069032805D20121002209036F48FFF7DF
:101A0000DAF82069B04204D36069B84201D2401CC0
:101A100060616069B8422BD2A0690328CED2F8BDBC
:101A20002069002804D1012211036448FFF7C3F89C
:101A30002069B84201D2401C2061B8420BD36069D2
:101A4000002808D1A069032805D20121002209033A
:101A50005A48FFF7B0F800E04EE02069B84204D3DE
:101A60006069B04201D2401C60616069B042D3D36A
:101A7000A0696561401C2561A061CDE743E063E09A
:101A80002069002804D1012211034C48FFF793F884
:101A90002069B04201D2401C2061B04208D3606985
:101AA000002805D10121002209034448FFF783F8EB
:101AB0002069B0427AD26069B042B0D365612561D5
:101AC000F8BD58E0FFE72069002804D10122110386
:101AD0003A48FFF770F8A06900280DD00128206966
:101AE00018D0374EB04201D2401C2061B04235D3ED
:101AF000606900282CD031E02069B04200D33AE779
:101B0000401C206137E76069B04200D341E7401CC8
:101B100060613EE7B84201D2401C2061B84208D360
:101B20006069002805D10121002209032348FFF73D
:101B300042F82069B84204D36069B84201D2401C1F
:101B400060616069B842BBD3A069401CA061B5E781
:101B50000121002209031948FFF72DF82069B0423E
:101B600004D36069B04201D2401C60616069B04238
:101B7000A6D3A561A2E72069002804D101221103A0
:101B80000E48FFF718F82069B84201D2401C2061C6
:101B9000B84208D36069002805D101210022090359
:101BA0000648FFF708F82069B84284D36069B0425C
:101BB00081D2401C60617EE7305705000004004878
:101BC000C802080000B58A68002A10D149680029B7
:101BD0000DD101780B00FFF751FC0A0A06080B0D26
:101BE0000F111315170A022100E00321017000BD37
:101BF0000421FBE70521F9E70621F7E70721F5E7CF
:101C00000821F3E70921F1E70121EFE710B5114CB5
:101C10000121002209032046FEF7CDFF0121002209
:101C200089032046FEF7C7FF7F210022C900204616
:101C3000FEF7C1FF0924FF21E406002201312046FE
:101C4000FEF7B9FF0F21012249022046FEF7B3FF3C
:101C500010BD00000004004810B500210160416083
:101C60008160C16001614161816101770162044964
:101C70004162012209201102C006FEF79CFF10BD3F
:101C800098AB020000000000000000000102030405
:101C900006070809B41C0008000000201800000016
:101CA00000010008CC1C000818000020D806000025
:101CB0001C010008000100000000000001000000FD
:0C1CC000040000000000000000127A0088
:04000005080000BD32
:00000001FF
